:020000040800F2
:1000000050C40120A103000829750008416D0008B3
:100010009F73000871200008A59A000800000000E6
:10002000000000000000000000000000FB8100084C
:10003000C9220008000000002B750008ED8A0008A6
:10004000BB030008BB030008BB030008BB03000898
:10005000BB030008BB030008BB030008BB03000888
:10006000BB030008BB030008BB030008BB03000878
:10007000BB030008BB030008BB030008BB03000868
:10008000BB030008BB030008BB0300085D28000891
:10009000BB030008BB030008BB030008BB03000848
:1000A000BB030008BB030008BB030008BB03000838
:1000B000BB030008BB030008BB030008BB03000828
:1000C000BB030008BB030008BB030008BB03000818
:1000D000BB030008559A0008BB030008BB030008D7
:1000E000BB030008BB03000800000000BB030008BE
:1000F000BB030008BB030008BB030008BB030008E8
:10010000BB030008BB030008BB030008BB030008D7
:10011000BB030008BB030008BB030008BB030008C7
:10012000BB030008BB030008BB030008BB030008B7
:10013000BB030008BB030008BB030008BB030008A7
:1001400000000000000000000000000000000000AF
:10015000BB030008BB030008BB030008BB03000887
:10016000BB030008BB030008BB030008BB03000877
:10017000BB030008BB030008BB030008000000002D
:10018000BB030008BB030008BB030008BB03000857
:10019000BB030008BB030008BB030008BB03000847
:1001A000BB030008BB030008BB030008BB03000837
:1001B000BB030008BB030008BB030008BB03000827
:1001C000BB030008BB030008BB030008BB03000817
:1001D000BB030008BB030008BB030008BB03000807
:1001E000BB030008BB030008BB030008BB030008F7
:1001F000BB030008BB030008BB030008BB030008E7
:10020000BB030008BB030008BB030008BB030008D6
:10021000BB030008BB030008BB030008BB030008C6
:10022000BB030008BB030008BB030008000000007C
:10023000BB030008BB03000800000000BB0300086C
:10024000BB030008BB030008BB030008BB03000896
:10025000BB030008BB030008BB030008BB03000886
:10026000BB030008BB030008BB030008BB03000876
:10027000BB030008BB030008BB030008000000002C
:10028000BB03000800000000BB03000800000000E2
:1002900000000000BB03000800F002F800F070F856
:1002A0000AA090E8000C82448344AAF10107DA45D1
:1002B00001D100F065F8AFF2090EBAE80F0013F0B3
:1002C000010F18BFFB1A43F00103184720C80000B4
:1002D00040C800000A444FF0000C10F8013B13F036
:1002E000070408BF10F8014B1D1108BF10F8015B8F
:1002F000641E05D010F8016B641E01F8016BF9D182
:1003000013F0080F1EBF10F8014BAD1C0C1B09D1D8
:100310006D1E58BF01F801CBFAD505E014F8016B4A
:1003200001F8016B6D1EF9D59142D6D370470000DC
:100330000023002400250026103A28BF78C1FBD8EE
:10034000520728BF30C148BF0B60704766290CF0C8
:100350008A81782900F03C81002070471FB50CF09D
:100360007DF99DE8030000F0F9F900F0F9FC0400C4
:10037000002000210CF05CF9E0601FBD10B510BD3D
:1003800000F010FE1146FFF7E9FF0AF0B7FF00F09A
:100390002EFE03B4FFF7F2FF03BC0AF049FB000096
:1003A0000948804709480047FEE7FEE7FEE7FEE709
:1003B000FEE7FEE7FEE7FEE7FEE7FEE70448054945
:1003C000034A054B70470000F98A000899020008AB
:1003D00050BE012050C4012050BE012070B5064619
:1003E00000F0A0F9056806F10B0020F00704B44204
:1003F0009CBF002070BD2B466A68BAB11068A0424D
:1004000010D304F1080188423CBF5068586007D3FC
:100410005168101941601168091B0160586014602F
:10042000101D70BD13465268002AE7D121462846A8
:1004300000F080F90028DED170BD53EA020C00F014
:1004400069802DE9F04B4FF00006002B1FBFB3FA77
:1004500083F503FA05F424FA05F65E4012BF16434D
:10046000B2FA82F502FA05F4C5F120051EBF22FAA0
:1004700005FC44EA0C04203556EA044C4FEA1444C7
:1004800018BF641C4FF000084FF00009904271EB58
:10049000030C39D3002919BFB1FA81F701FA07F625
:1004A000B0FA80F700FA07F6C7F120071EBF20FA5E
:1004B00007FC46EA0C062037B6FBF4FCA7EB050761
:1004C000103F07F01F0BCBF120060CFA0BFB2CFAA8
:1004D00006F644BFB3460026202FA4BF5E464FF069
:1004E000000B5BEA060C08BF4FF0010B19EB0B0980
:1004F000ABFB027C48EB0608C01B06FB02CC0BFBE7
:1005000003CC71EB0C01C1E70B460246414648465D
:10051000BDE8F08B13B54FF000004FF00001AFF3D2
:100520000080BDE81C4070470FB4044910B503AA11
:10053000029800F0FFFB10BC5DF814FB9001002056
:100540000FB41CB5074B06AA7B446946009005987A
:1005500000F0D7FB0020694600F0E6FB1CBC5DF80C
:1005600014FB0000DD0700002DE9F0410E460446B3
:10057000002020622046E168884730B3252805D056
:10058000D4E901219047206A401CF2E7E168204647
:1005900000278847050018D0A5F14100192802D886
:1005A00020354FF400673246294620462760FFF782
:1005B000CDFE40B1012804D0F61D26F0070608360E
:1005C000D8E7361DD6E72846DAE7206ABDE8F0818D
:1005D00070B504460D4621461068AFF300802188AF
:1005E000090502D50F4A7A4402E00E4A7A440E32D7
:1005F000002104F1240305E000F00F060009965DD8
:100600005E54491C0028F7D120780023000704D548
:10061000702D02D009B1022311322046BDE870408E
:1006200000F004B932C2000010B5203AC0F00B80CF
:10063000B1E81850203AA0E81850B1E81850A0E8E6
:100640001850BFF4F5AF5FEA027C24BFB1E8185040
:10065000A0E8185044BF18C918C0BDE810405FEAB0
:10066000827C24BF51F8043B40F8043B08BF70472C
:10067000D20728BF31F8023B48BF11F8012B28BF31
:1006800020F8023B48BF00F8012B70474FF00002F2
:100690000429C0F0128010F0030C00F01B80CCF194
:1006A000040CBCF1020F18BF00F8012BA8BF20F802
:1006B000022BA1EB0C0100F00DB85FEAC17C24BF56
:1006C00000F8012B00F8012B48BF00F8012B704700
:1006D0004FF0000200B5134694469646203922BFDB
:1006E000A0E80C50A0E80C50B1F12001BFF4F7AF26
:1006F000090728BFA0E80C5048BF0CC05DF804EB08
:10070000890028BF40F8042B08BF704748BF20F875
:10071000022B11F0804F18BF00F8012B7047704773
:100720007047704700487047F8BD01207047704718
:100730007047704738B504460A4600206946AFF353
:100740000080002808BF38BD02460099204600F00E
:100750000FFB012038BD012000F01CBCF8B5AFF341
:100760000080054600200C46102000BF0646A81950
:10077000A0420DD9324669460020AFF30080070041
:1007800008BF00F007FC0098A04218BF0546C41936
:10079000FFF7C8FF05600746F01D20F00700461967
:1007A000284600F00AF8B44208BFF8BDA21B314643
:1007B0003868BDE8F84000F0DBBA00210160C0E90C
:1007C000011070471020704770B50446051FFFF7F1
:1007D000A9FF0068002C14BF446870BD002C18BF2E
:1007E000AC423CBF20466468F8D301680A18AA42AC
:1007F00018BF456003D12A68054611440160286886
:100800004119A1421CBF6C6070BD616869602168BC
:100810000844286070BD10B500F0A6FA006810BD4D
:1008200010B5044600F0A0FA046010BD2DE9F047B1
:100830000D4699469246044600F124080168880650
:1008400004D5E06921F01001216000E00120A842F8
:1008500001DD471B00E00027A1697A1902EB0900BE
:10086000081AA0612078C00602D42046AFF30080A9
:10087000002608E0D4E901211AF806009047206A12
:10088000401C761C20624E45F4DB2078C0060AD559
:100890002046AFF3008006E0D4E9012130209047E4
:1008A000206A401C2062381EA7F10107F4DC07E033
:1008B000D4E9012118F805009047206A401C206205
:1008C000281EA5F10105F3DC2046AFF30080207857
:1008D000000602D50220BDE8F0870120FBE7704743
:1008E0002DE9FF4F0C461E464FF0FF378BB0D2E983
:1008F0000001DDF860800A908A46C1F30A5505B907
:100900003D46002108464FF00000BAF1000F00F408
:10091000400005DA00EB80004FF4400101EA50008E
:100920004FEA9059B9F1010F00DDB9460A9850EA33
:100930004A000ED044F61050A5F2FF3545432F145F
:10094000B8F1000F1ED07542291E1EDDC9F100024C
:100950001CE0B8F1010F4FF0000001D0302103E09E
:10096000F24305E02154401CB042FBDB304600223C
:10097000002121540B99C1F80880C1E900200FB073
:10098000BDE8F08FBD1B6D1CDEE74A4600DA694208
:1009900006A800F08DFA06AB93E8070003AB83E8E6
:1009A000070050460A9900F0ADFB8DE80700A0F55E
:1009B00000501F3800900398002D09DD42F21F01FE
:1009C0004A46084403A90390684600F00CFE08E07C
:1009D000A0F500504A461F3803A90390684600F06E
:1009E00016FE8DE807000004000C03D04FF0FF3026
:1009F000410800E01046B8F1000F03D00022009239
:100A000015461EE0751E05D400F0CCF93032625553
:100A10006D1EF9D5B3460122084302D000227F1C87
:100A200004E02078302801D100227F1E002A099797
:100A300086D01DE0112D07DA00F0B4F9303262558E
:100A40006D1C50EA0102F5D1084302D00098C8B1EC
:100A50000EE00021681E05E0235C625C63542254B2
:100A6000401E491C8142F7DBAB46A81B401E099083
:100A7000002004F80B000B98099AC0F80880C0E920
:100A8000002B7CE711264FF0000859E72DE9F04FC5
:100A900088460446D21D22F0070191B0D1E9000139
:100AA000CDE90A0109F067F802460B98C00F01D0A2
:100AB0002D2007E02068810701D52B2002E02021AE
:100AC00001EAC000032A099001D0072A05DB03468A
:100AD0004146204600F0ACF90BE12078800601D5B4
:100AE000E06900E00620B8F1650F814606D0B8F154
:100AF000660F18D0B8F1670F70D131E00020B9F15E
:100B0000110F009001DB112301E009F101030AAA92
:100B100001A90CA8FFF7E4FEDDE90C70002609F13D
:100B20000105834647E001204B4600904FF0004707
:100B30000AAA01A90CA8FFF7D3FEDDE90DB00C99B4
:100B40005D46002610B909F101000D18B9EB05004A
:100B500003D4C0F1FF3609F10105A5EB09002BE034
:100B6000B9F1010F01DA4FF001090020B9F1110FBD
:100B70000090484601DD112300E003460AAA01A9BE
:100B80000CA8FFF7ADFEDDE90C704D46002683464C
:100B9000207800070AD4AB4500DA5D4601A8012D94
:100BA00004DD411911F8011C302907D04F4502DA44
:100BB00017F1040F04DA012082460FE06D1EEEE704
:100BC000002F02DCED1B3E4403E0781CA84200DD50
:100BD0007D1CB81B00F1010A4FF000472078000788
:100BE00003D4AA4501DB4FF0FF3A0021B7F1004FD3
:100BF0000DF143088DF8431024D002202B23002F41
:100C000001DA7F422D230A21021EA0F1010000DC3F
:100C10005FB197FBF1FC97FBF1F201FB1C7C1746DF
:100C20000CF1300C08F801CDEEE7A8F101000370DB
:100C30002188090501D5452100E06521A0F10108C1
:100C400000F8011C09980FA9A1EB0807FF1D00B1CE
:100C50000120411901EBEA70A1693844081A401ECD
:100C6000A0612078C00602D42046AFF30080099826
:100C700028B1D4E901219047206A401C20622078E5
:100C8000C00622D52046AFF300801EE0002E04DB14
:100C9000B34502DD01A8805D00E03020D4E90121E8
:100CA0009047206A401C2062761CAAF101005FEA8E
:100CB000000A0AD100F054F8C0680168405CD4E929
:100CC00001219047206A401C2062281EA5F10105E1
:100CD000DCDC07E0D4E9012118F8010B9047206A19
:100CE000401C2062381EA7F10107F3DC2046AFF359
:100CF0000080032011B043E601694A1C02610878B4
:100D0000704700B58FB0CDE901310021059105494B
:100D10007944CDE9031011466846FFF725FC0FB072
:100D200000BD0000E5FFFFFF0A6802F8010B0A6042
:100D300070470000074B70B50D467B44FFF7E1FF9D
:100D40000446284600F022F910B14FF0FF3070BD84
:100D5000204670BDCBA1000000487047F0BD0120C7
:100D60000048704710BE012000487047F0BD0120C8
:100D7000034640688C46002818BF88423CBF0346A3
:100D80004068F8D318681844884207D00CF1030073
:100D900020F00700001D411A521A0146081D0A6082
:100DA000FFF712BD30B5B0F10A024FEA900E71F1B3
:100DB00000034EEA817EB0EB0E0061EB91014FEA39
:100DC000101E4EEA017E10EB0E0041EB11114FEAAE
:100DD000102E4EEA016E10EB0E0041EB11214FEA8E
:100DE000104E4EEA014E10EB0E0041EB114140183F
:100DF00041F100014FEAD00040EA41704FEAD101D1
:100E000010EB80054FEA810444EA907444EB01043E
:100E10006D1944EB0404521BA3414FF0000348BF7B
:100E20000A3200D530BD401C41F1000130BD000048
:100E30002DE9F0411F46044603260168072A01F404
:100E4000006004DB08B116A505E016A503E008B1B3
:100E500015A500E015A521F010002060A069C01EB6
:100E6000A0610FB1401EA0612046AFF300804FB1DA
:100E7000D4E9012138469047206A401C2062C01CFA
:100E8000206206E0206AFAE7D4E9012115F8010B97
:100E90009047761EF8D22046AFF30080BDE8F0817F
:100EA0004E414E006E616E00494E4600696E66000E
:100EB0002DE9F047814616468AB0334878440DC87C
:100EC0008DE80D0030487844801C03AC0DC884E8E0
:100ED0000D0041F69B300844372190FBF1F290FB66
:100EE000F1F5A5F1800501FB12041B3C02D564421B
:100EF000012000E00020DFF890A080460027FA449F
:100F0000AAF1BE0A0DE0E00709D03246684607EBB9
:100F100047010AEB810100F07AFB8DE807006410BD
:100F20007F1C002CEFD1184F7F44AC3F18E0E8073E
:100F300014D007EB04100DF1180A90E80E008AE8AF
:100F40000E00C068F04201D198190890324606A9F7
:100F500003A800F05CFB03AB83E807006D10641C82
:100F6000002DE4D132466946B8F1000F03A802D043
:100F700000F039FB01E000F04AFBC9E90001C9F8C3
:100F800008200AB0BDE8F08714BC0000007B00F028
:100F90008000704710B500F039F8BDE8104000F04F
:100FA0002FB870477546FFF7D7FEAE460500694675
:100FB000534620F00700854618B020B5FFF7FEF92C
:100FC000BDE820404FF000064FF000074FF000084A
:100FD0004FF0000B21F00701AC46ACE8C009ACE8CB
:100FE000C009ACE8C009ACE8C0098D46704710B52F
:100FF0000446AFF300802046BDE81040FFF7C9B9B2
:10100000002801D009F014BD7047000010B5012878
:1010100005D0002103A000F055F8012010BD09A162
:10102000F8E7000053494752544D454D3A204F755B
:1010300074206F662068656170206D656D6F7279D0
:10104000000000003A2048656170206D656D6F7288
:101050007920636F72727570746564004FF0013CA3
:1010600050F8042B51F8043B9A4215D1A2EB0C0323
:10107000934313EACC130BD150F8042B51F8043BE3
:101080009A4209D1A2EB0C03934313EACC13E7D0A5
:101090004FF00000704700BFD01A01BAB1FA81F1D9
:1010A00001F0180122FA01F0CB40C1F12001DBB2BE
:1010B000C0B2C01A2CFA01F3D11A914311EAC3113C
:1010C000E6D1704770B505460C460A2000E06D1C5D
:1010D00000F011F835B128780028F8D102E0641C3E
:1010E00000F009F814B120780028F8D1BDE870406C
:1010F0000A20AFF3008008B569468DF80000032090
:10110000ABBE08BD5FEA400C08BF91F0000F4FEA8C
:101110008C234FEAC12243EA51514FEA1C5018BFB9
:1011200000F5F0404FEA300018BF41F000415FEA9F
:101130006C5C00F02980BCF1FF3F08BF40F08040AC
:101140007047130C06BF12044FF0100C4FF0000C48
:10115000130E04BF12020CF1080C130F04BF12018E
:101160000CF1040C930F04BF92000CF1020CD30F8E
:1011700004BF52000CF1010C11464FF00002A0F127
:101180001F00A0EB0C00704711F0004F08BF704724
:1011900031F000413FF4D5AF0B0C06BF09044FF00E
:1011A000100C4FF0000C0B0E04BF09020CF1080CE0
:1011B0000B0F04BF09010CF1040C8B0F04BF890055
:1011C0000CF1020CCB0F04BF49000CF1010CCCF167
:1011D0002003A0EB0C0022FA03F302FA0CF241EA1E
:1011E000030100F10100704720F07F4C80EA03000A
:1011F00023F07F47ACEB070303F57C5300F000407E
:1012000003F1FF032DE980494FEA154B09B44FEA7A
:10121000144325EA0B4E24EA03480FF2042606EB9A
:10122000132749083E785FEA320203FB0667C7F5D9
:10123000000707FB06F64FEA54374FEAD64606F199
:10124000020607FB066CCCF1005C4FEA1C472CEA57
:10125000074C07FB06F40CFB06F504EB15464FEABA
:10126000961634BF00204FF000404FEAD13706FBFE
:1012700007FC4FEA1C4C0CFB0BF7D21B03FB0CF7D3
:1012800061EB07010CFB0EF7B0EB074072EB174266
:101290000CFB08F734BFA2EB0742B2EB074261EB4D
:1012A00017414FEA0C444FEA910706FB07FC4FEA4F
:1012B0001C4C0CFB0BF7B0EBC74072EB573203FB37
:1012C0000CF734BFA2EBC742B2EBC74261EB573118
:1012D0000CFB0EF7B0EBC70072EB57720CFB08F774
:1012E00034BFA2EBC702B2EBC70261EB5771039F99
:1012F0004FEA816141EA921104EBCC044FEAD13705
:101300004FEA826206FB07FC42EA90124FEA8060D5
:101310004FEA1C4C0CFB0BF7D21B03FB0CF761EBE9
:1013200007010CFB0EF7B0EB074072EB17420CFB0A
:1013300008F734BFA2EB0742B2EB074261EB17415B
:101340004FEA8C554FEA910704EB9C2406FB07FCFF
:101350004FEA1C4C0CFB0BF7B0EBC74072EB57325B
:1013600003FB0CF734BFA2EBC742B2EBC74261EB01
:1013700057310CFB0EF7B0EBC70072EB57720CFB4A
:1013800008F734BFA2EBC702B2EBC70261EB57719B
:1013900015EB4C254FEA816141EA92114FEA8262D6
:1013A0004FEAD13742EA901206FB07FC44F10004F1
:1013B0004FEA80604FEA1C4C0CFB0BF7D21B03FB7F
:1013C0000CF761EB07010CFB0EF7B0EB074072EB7B
:1013D00017420CFB08F734BFA2EB0742B2EB0742FF
:1013E00061EB174115EB1C154FEA813141EA92413F
:1013F0004FEA823242EA90424FEA80304FEA0C765E
:1014000044F1000448EA03434EEA0B484FF0000E53
:10141000B2EB080C71EB030724BF624639464EEB72
:101420000E0E4FF0000B0018524149414BEB0B0BD5
:10143000B2EB080C71EB03077BF1000B24BF624693
:1014400039464EEB0E0E4FF0000B00185241494149
:101450004BEB0B0BB2EB080C71EB03077BF1000BB2
:1014600024BF624639464EEB0E0E51EA020718BF02
:1014700046F0010616EB0E7655F1000254F100011C
:1014800003D5BDE88901BDE80088BDE88901BDE854
:101490000048B619524141EB0101A3F10103704725
:1014A00080807F7E7D7C7B7A7978777676757473A1
:1014B000727171706F6E6E6D6C6C6B6A6A69686860
:1014C000676666656464636362616160605F5F5EF6
:1014D0005E5D5D5C5C5B5B5A5A595958585757566C
:1014E00056555555545453535252525151505050D1
:1014F0004F4F4F4E4E4D4D4D4C4C4C4B4B4B4A4A23
:101500004A49494948484847474747464646454566
:10151000454444444443434343424242424141419F
:10152000002B26D4770021D01CB54FEA370703B42F
:101530004FF010004FF010014FF000000FBCBDE85D
:1015400010400BF1010BBBF1010F08BF5FEA170759
:1015500022BF12F1010211F101014FF0004143F1EC
:10156000000300F0004043EA00007047F9D3570839
:10157000DAE746EA064613F1400F4FEA16461FDD4A
:1015800013F1200FDFBF16430A46002120335B42D0
:10159000C8D0C3F1200746EA064602FA07F74FEA29
:1015A000164646EA0706C3F1200722FA03F201FABB
:1015B00007F721FA03F14FF0000342EA0702B1E70F
:1015C00046EA020646EA06464FEA164646EA01069B
:1015D000BCBF46EA0646360C4FF000034FF000024F
:1015E0004FF000019EE72DE9C048934630B491E8E2
:1015F000380007C831EA400C48BF34EA430C03D531
:10160000FFF7F2FDFFF78CFFF0BCBDE800882DE985
:10161000C048934630B491E8380007C810F0804FB6
:1016200008BF13F0804F03D100F005F8FFF778FFF3
:10163000F0BCBDE8008820F07F4780EA030023F07B
:101640007F4C07EB0C03A3F57C5300F00040A3F1A3
:10165000FE0392F0000F00F0B38095F0000F00F051
:1016600077802DE901494FEA11404FEA144621EAFB
:10167000004800FB06FC24EA064708FB06F607FBC9
:1016800008F800FB07F718EB06484CEB164C4FEA3E
:10169000124B18EB07484FEA15464CEB174022EA6D
:1016A0000B4E0BFB06FC25EA06470EFB06F607FB76
:1016B0000EFE0BFB07F71EEB064E4CEB164C4FF0E5
:1016C00000061EEB074E4CEB174B18EB0B0840F1D6
:1016D000000018EB0E0B58EB000840F100008F1AC9
:1016E0004FF000013CBFC943661B14BFB5EB040CAF
:1016F00000213CBFC943F61B4FEA17444EEA8E0E49
:1017000027EA04454FEA1C4704FB07622CEA074C12
:1017100005FB07F70CFB05F604FB0CFC16EB074674
:1017200042EB174216EB0C4642EB1C421BEB060643
:1017300058EB0202414146EA9E0601D5BDE8018907
:10174000B619524141EB0101A3F10103BDE8018942
:101750004FEA14454FEA114724EA054621EA074CAF
:1017600005FB07F406FB07F70CFB06F105FB0CFC79
:1017700011EB074144EB17444FEA124711EB0C41C0
:1017800044EB1C4422EA074C05FB07F206FB07F773
:101790000CFB06F605FB0CFC16EB074642EB17426A
:1017A00016EB0C4642EB1C456A1854F1000148BF89
:1017B0007047B619524141EB0101A3F10103704793
:1017C00095F0000F37D04FEA11424FEA144721EA53
:1017D000024624EA074C02FB07F106FB07F70CFB65
:1017E00006F402FB0CFC14EB074441EB17414FEAF3
:1017F000154714EB0C4441EB1C4125EA074C02FB56
:1018000007F506FB07F70CFB06F602FB0CFC16EBD4
:10181000074645EB174516EB0C4645EB1C421219E3
:1018200051F1000148BF7047B619524141EB010127
:10183000A3F1010370474FEA14454FEA114724EA28
:10184000054621EA074C05FB07F106FB07F70CFBF1
:1018500006F24FF0000605FB0CFC12EB074241EBD1
:10186000174112EB0C4251EB1C4148BF70479218D4
:1018700041EB0101A3F101037047000070B504467C
:10188000002534B1012C25D0022C44D0032C7DD16D
:1018900062E04FF2240000F0EDF84548406901682D
:1018A000142088474FF2240000F0E4F840484069D3
:1018B0000168142088474FF2240000F0DBF83C4810
:1018C00040690168142088474FF2240000F0D2F8E4
:1018D000054665E04FF2242000F0CCF8344840691A
:1018E0000168142088474FF2242000F0C3F83048E4
:1018F00040690168142088474FF2242000F0BAF8AC
:101900002B4840690168142088474FF2242000F0DA
:10191000B1F8054644E04FF2244000F0ABF824480B
:1019200040690168142088474FF2244000F0A2F873
:101930001F4840690168142088474FF2244000F096
:1019400099F81B4840690168142088474FF22440E9
:1019500000F090F8054623E04FF2246000F08AF88A
:10196000134840690168142088474FF2246000F052
:1019700081F80F4840690168142088474FF22460BD
:1019800000F078F80A484069016800E007E0142098
:1019900088474FF2246000F06DF8054600E000BF74
:1019A00000BF03484069016814208847284670BD7D
:1019B0002801002010B51548406941683220884749
:1019C0004FF2242000F056F81048406901682820A2
:1019D00088474FF2242000F04DF80C484069016818
:1019E000282088474FF2242000F044F80748406937
:1019F0000168282088474FF2242000F03BF8034874
:101A0000406901682820884710BD00002801002097
:101A10001CB5002000900190FFF730FFADF80000EA
:101A20000120FFF72BFFADF802000220FFF726FF91
:101A3000ADF804000D480068BDF8001008440B49DB
:101A4000086008464068BDF802100844074948602D
:101A500008468068BDF804100844044988600448BA
:101A60000088401C024908801CBD0000CC020020F8
:101A70001C0000207CB5044600200190009020123C
:101A80008DF80400E0B28DF805000848C068022314
:101A90006A4601A946680120B0479DF8000005028A
:101AA0009DF80100054328467CBD00002801002068
:101AB0000021017081704170C0F880109FED0C0B07
:101AC00080ED060B9FED0A0B80ED0A0B9FED080BD6
:101AD00080ED080B00BF08E09FED050B00F1380218
:101AE00002EBC10282ED000B491C0329F4DB7047B5
:101AF000000000000000000001469FED0D0B81ED8D
:101B0000000B002010E09FED0A0B01F1080202EB30
:101B1000C00282ED000B9FED060B01F1200202EBEB
:101B2000C00282ED000B401C0328ECDB7047000074
:101B3000000000000000000001469FED0D0B81ED4C
:101B4000000B002010E09FED0A0B01F1080202EBF0
:101B5000C00282ED000B9FED060B01F1200202EBAB
:101B6000C00282ED000B401C0328ECDB7047000034
:101B7000000000000000000010B51948006820B106
:101B8000174909680868804701E000BFFEE714486C
:101B9000406820B1124949680868804701E000BFE9
:101BA000FEE70F48806820B10D49896808688047C2
:101BB00001E000BFFEE70A48C06820B10849C968D3
:101BC0000868804701E000BFFEE70548006920B1D2
:101BD000034909690868804701E000BFFEE710BDBE
:101BE0002801002070B505460C462F48807858B96A
:101BF0002D48FFF75DFF2D4809F028F82C48FFF726
:101C00007BFF0120284988702949284609F0C4F83B
:101C10002548007890BB0026254A2032A2F1180101
:101C2000224809F0DBFD0646012E26D11F4890ED23
:101C3000180B1D4880ED080B1C4890ED1A0B1A4834
:101C400080ED060B194890ED000B174880ED0E0B48
:101C5000164890ED020B144880ED100B00F1A8011E
:101C60001248603008F058FF0F49883101F1200018
:101C700009F0DEF901200C49087000BF0A4800781D
:101C8000012803D108490A4809F03EFB064890EDB7
:101C9000080B84ED000B90ED060B84ED020B04485D
:101CA000FFF74AFF012070BDB0B20120A0B30120B0
:101CB00078B2012070B504460D463948807858B98D
:101CC0003748FFF7F5FE374808F0C0FF3648FFF702
:101CD00013FF0120324988703349204609F05CF82F
:101CE0002F480078D0BB00262F4A2032A2F11801DD
:101CF0002C4809F0A5FE0646012E2ED1294890ED6C
:101D00001A0B274880ED060B264890ED1A0B244845
:101D100080ED0A0B234890ED020B214880ED100B5B
:101D2000214890ED000B1E4890ED021B30EE410B58
:101D300080ED040B00F15003012203211A482030EA
:101D400005F02FFB164B683301220321164808309B
:101D500005F027FB01201249087000BF10480078E9
:101D600001280DD1A06B012806D1104890ED000B81
:101D70000B4880ED060B03E009490B4800F018F80A
:101D8000074890ED060B85ED000B90ED060B07481C
:101D900080ED000B0448FFF7CFFE012070BD00006E
:101DA000F0B40120E0B50120B8B4012010010020FA
:101DB00030B52DED068B9FB005460C469FED990B77
:101DC000B0EE409B6078E8B901220221974809F003
:101DD000B3F8974B0FCBCDE90623CDE9040104A955
:101DE00092480AF037FB924B10330FCB8DE80F006F
:101DF00069468E480AF04AFB012060708DA0FEF70C
:101E000093FB00BF95ED000BB0EE40AB182118A876
:101E1000FEF75EFC182112A8FEF75AFC18210CA848
:101E2000FEF756FC0120032312AA05F120010090C1
:101E300004F1500005F08AFA012003230CAA05F1F1
:101E40000801009004F1680005F080FAB6EE000B7E
:101E50000122032112A805F0EBFAB6EE000B0122D5
:101E600003210CA805F0E4FA04F150030122032138
:101E700005F1200005F095FA04F168030122032121
:101E800005F1080005F08DFA0120032318AA04F1DA
:101E9000380100900CA805F0A2FA95ED040B94ED22
:101EA000101B30EE411B94ED060B95ED002B02EE5E
:101EB000010B84ED060B95ED040B94ED101B30EE39
:101EC000411B94ED0A0B95ED002B02EE010B84ED06
:101ED0000A0BB0EE4A0B55480AF0A6FAB0EE4A0BD0
:101EE000524806F08DFE9DED162BB1EE422BB0EE62
:101EF000421B9DED122BB0EE420B08F009F9B0EE3B
:101F0000409B00200A900B9095ED081B21EE011BD1
:101F100095ED0A2B95ED0A3B02EE031B95ED0C2B7C
:101F200095ED0C3B02EE031BB0EE410B08F080FA7E
:101F30009FED442B80EE021BB7EE000B31EE400B01
:101F4000B0EEC08B9FED410BB4EEC08BF1EE10FAFA
:101F500005D2D4F88000401CC4F8800002E00020C4
:101F6000C4F88000D4F88000642804DD9FED390BAC
:101F70008DED0A0B0FE09FED350B38EE401BB2EEF6
:101F8000042BB6EE000B01EE020B9FED341B20EE8E
:101F9000010B8DED0A0B00200890099094ED060BC3
:101FA00030EE490B8DED080B08A920480AF0A2FA83
:101FB00001220AA91D480AF085FA002201211B48C6
:101FC0000AF022FA08AA0AA9184804F0EBFE9FEDCD
:101FD000250BB4EEC08BF1EE10FA10D294ED060B87
:101FE000124890ED021B30EE410B84ED060B94ED90
:101FF000100B90ED041B30EE010B84ED100B9FEDE8
:10200000090B0A4880ED020B9FED060B80ED040BD7
:1020100016480068401C1549086001201FB0BDEC3F
:10202000068B30BD0000000000000000B00700205B
:1020300038C700086B616C6D616E20696E69740A47
:10204000000000006F9EEA909B61EF3F7B14AE475B
:10205000E17A943F349D52A246DF813F349D52A2E3
:1020600046DF913F9A9999999999B93FE0000020EC
:1020700000BFFEE710B505F083FF05F033FF03480E
:10208000006840F004000149086010BD9CEF00E0CA
:1020900010B52DED0A8BB0EE408BF0EE419A8748DB
:1020A00080ED048A38EEC80A80ED050A90ED060A34
:1020B00079EEE80A30EE200AF0EE40BAB7EEEB0A0D
:1020C00008F006F97E4890ED031A21EE011AD0EDD2
:1020D000081A90ED082A01EE821AB7EEC11A90EDA7
:1020E000032AF0EE002A22EE222AD0ED082A22EE60
:1020F000222AB7EEC22A02EE401BB7EEC10BB0EEA9
:10210000409AB0EE490A08F0C6F9B0EE40AA6C4811
:10211000D0ED060A90ED061AB0EE490A00EE810AEB
:10212000D0ED070A90ED071A00EEC10AD0ED060ABD
:10213000B0EE001A60EE810A60EE8A0A80EE201A84
:10214000B0EE41CAB0EE4C0A07F04AFDF0EE40AAEC
:102150005B48D0ED080A90ED081AB0EE490A00EE8F
:10216000810AD0ED030A90ED031A00EEC10AD0ED0A
:10217000080AB0EE001A60EE810A60EE8A0A80EE6C
:10218000201AB0EE41CAB0EE4C0A07F029FDB0EEBD
:1021900040BA4A4890ED060A30EE2A0A30EE0B0AA1
:1021A000D0ED030A30EE200ADFED460A30EEC00A19
:1021B00080ED020A90ED041AB7EEC11AB0EE410BA1
:1021C00008F086F83E4890ED001AB7EEC11A20EEEE
:1021D00001CB3A4890ED041AD0ED051A31EE211AE0
:1021E000B7EEC11AB0EE410B08F072F8344890ED2A
:1021F000011AB7EEC11A01EE00CB304890ED041A77
:10220000D0ED051A31EE211AD0ED021A31EE211A65
:10221000B7EEC11AB0EE410B08F05AF8284890ED1D
:10222000021AB7EEC11A01EE00CBB7EECC0B234871
:1022300080ED000A90ED041AB7EEC11AB0EE410B22
:1022400008F09EF81E4890ED001AB7EEC11A20EE75
:1022500001CB1A4890ED041AD0ED051A31EE211A7F
:10226000B7EEC11AB0EE410B08F08AF8144890EDB1
:10227000011AB7EEC11A01EE00CB104890ED041A16
:10228000D0ED051A31EE211AD0ED021A31EE211AE5
:10229000B7EEC11AB0EE410B08F072F8084890EDA5
:1022A000021AB7EEC11A01EE00CBB7EECC0B034811
:1022B00080ED010ABDEC0A8B10BD00005404002023
:1022C000E4C60008DB0F49407047000070B50446C3
:1022D0000D463948807858B93748FFF7E9FB374849
:1022E00008F0B4FC3648FFF707FC0120324988703B
:1022F0003349204608F050FD2F480078D0BB002617
:102300002F4A2032A2F118012C4809F045FD06465B
:10231000012E2ED1294890ED1A0B274880ED060B8F
:10232000264890ED1A0B244880ED0A0B234890EDC7
:10233000020B214880ED100B214890ED000B1E4848
:1023400090ED021B30EE410B80ED040B00F15003C9
:10235000012203211A48203005F023F8164B683378
:10236000012203211648083005F01BF8012012490C
:10237000087000BF1048007801280DD1A06B01281B
:1023800006D1104890ED000B0B4880ED060B03E0E2
:1023900009490B4800F018F8074890ED060B85ED49
:1023A000000B90ED060B074880ED000B0448FFF78B
:1023B000C3FB012070BD000070B9012060BA01208C
:1023C00038B901202001002030B52DED068BADB0CD
:1023D00005460C469FEDED0BB0EE409B6078F8B9DA
:1023E00001220221EB4808F0A7FDEB4B0FCBCDE912
:1023F0001423CDE9120112A9E6480AF02BF8E64BA6
:102400001033D3E90012D3E90203CDE91003CDE97B
:102410000E120EA9DF480AF039F80120607000BFE3
:1024200095ED000BB0EE40AB182126A8FEF750F951
:10243000182120A8FEF74CF918211AA8FEF748F930
:102440000120032320AA05F12001009004F150008F
:1024500004F07CFF012003231AAA05F10801009073
:1024600004F1680004F072FFB6EE000B01220321B4
:1024700020A804F0DDFFB6EE000B012203211AA80C
:1024800004F0D6FF04F150030122032105F12000DE
:1024900004F087FF04F168030122032105F108001D
:1024A00004F07FFF0120032326AA04F138010090E5
:1024B0001AA804F094FF95ED040B94ED101B30EE78
:1024C000411B94ED060B95ED002B02EE010B84ED04
:1024D000060B95ED040B94ED101B30EE411B94EDB3
:1024E0000A0B95ED002B02EE010B84ED0A0BB0EE0A
:1024F0004A0BA84809F098FFB0EE4A0BA54806F031
:102500007FFB9DED242BB1EE422BB0EE421B9DEDE7
:10251000202BB0EE420B07F0FBFDB0EE409B0020FD
:102520001890199095ED081B21EE011B95ED0A2BD3
:1025300095ED0A3B02EE031B95ED0C2B95ED0C3B44
:1025400002EE031BB0EE410B07F072FF9FED932BE1
:1025500080EE021BB7EE000B31EE400BB0EEC08BED
:102560009FED900BB4EEC08BF1EE10FA05D2D4F8CB
:102570008000401CC4F8800002E00020C4F8800005
:10258000D4F88000642804DD9FED880B8DED180BD6
:102590000FE09FED840B38EE401BB1EE042BB6EE3E
:1025A000000B01EE020B9FED831B20EE010B8DED66
:1025B000180B00201690179094ED060B9FED7F1BD3
:1025C000B4EEC10BF1EE10FA07DD94ED060B9FEDB2
:1025D0007D1B30EE410B84ED060B94ED060B9FED59
:1025E0007B1BB4EEC10BF1EE10FA07D294ED060B93
:1025F0009FED741B30EE010B84ED060B94ED060B82
:1026000030EE490B8DED160B9DED160B9FED6B1B00
:10261000B4EEC10BF1EE10FA07DD9DED160B9FED48
:10262000691B30EE410B8DED160B9DED160B9FEDEA
:10263000671BB4EEC10BF1EE10FA07D29DED160B3D
:102640009FED601B30EE010B8DED160B16A9514866
:1026500009F050FF012218A94E4809F033FF00226B
:1026600001214C4809F0D0FE16AA18A9494804F0E7
:1026700099FB9FED580BB4EEC08BF1EE10FA10D21F
:1026800094ED060B434890ED021B30EE410B84EDB8
:10269000060B94ED100B90ED041B30EE010B84ED56
:1026A000100B94ED060B9FED451BB4EEC10BF1EE44
:1026B00010FA07DD94ED060B9FED421B30EE410B47
:1026C00084ED060B94ED060B9FED401BB4EEC10BA1
:1026D000F1EE10FA07D294ED060B9FED3A1B30EEA7
:1026E000010B84ED060B95ED000B8DED140B94EDB5
:1026F0000A0B9FED3A1B20EE010B8DED120B95EDB1
:10270000000B8DED100B95ED0C0B8DED0E0B95ED7B
:102710000A0B8DED0C0B95ED080B8DED0A0B95ED6D
:10272000040B8DED080B94ED060B9FED2C1B20EE9A
:10273000010B8DED060B9FED290B29EE000B8DEDA6
:10274000040B94ED100B8DED020B124890ED040B71
:102750008DED000B90ED021BB0EE410B53EC102BF6
:1027600020A0FDF7E1FE9FED090B0A4880ED020B6A
:102770009FED060B80ED040B24480068401C2349A4
:10278000086001202DB0BDEC068B30BD00000000BC
:1027900000000000E008002078C700086F9EEA9063
:1027A0009B61EF3F7B14AE47E17A943F349D52A288
:1027B00046DF813F349D52A246DF913F112D4454A4
:1027C000FB210940112D4454FB211940112D445483
:1027D000FB2109C09A9999999999B93F00C2631A46
:1027E000DCA54C4025662C25662C25662C25662C00
:1027F00025662C25662C25662C25662C25662C2521
:10280000662C25662C25660D0A000000E8000020D5
:1028100000B587B000BF0F48006840F004000D49C4
:1028200008600846006800F00400019000BF00BF87
:10283000022002900120039004900220059002A93A
:10284000054801F0E5FB01220221034801F006FDE5
:1028500007B000BDE04402580008025810B5024815
:1028600000F0CAFE10BD000008BD01202DE9F041B6
:1028700088B004460D4616461F46DDF838802348CA
:1028800000F0C4FD22482149086080158860084690
:10289000C0F80C8001210174417481744461856128
:1028A000C6610762002141638163C1630121016444
:1028B00004214164002101658165C1650121016632
:1028C000002141660421816601F06EF918B10120F2
:1028D00008B0BDE8F0810020009001900220029035
:1028E000012003900020049005906946074800F0FD
:1028F00038FD08B10220EBE7044801F030FB00226C
:102900000121024800F092FC0020E1E708BD01200F
:1029100000A0004010B504462346064A4021064860
:1029200000F088FD08B1002010BD0248C068C0F367
:102930000740F9E7A4BD012008BD012070B5044699
:102940000D4616460B48046000200A49486088601E
:102950000846C6600020086148618861C861086255
:102960002A46054800F0B8FC08B1012070BD0020DF
:10297000FCE70000CCBD012008BD012010B50146D8
:10298000486BC8660868D0F884004FF6FC7398431B
:10299000CB6E40EA83000B68C3F884000868D0F867
:1029A000840020F47F03088F43EA00400B68C3F8DB
:1029B0008400CB6E886B03440B670868D0F88800EE
:1029C0004FF6FC7398430B6F40EA83000B68C3F823
:1029D00088000868D0F8880020F47F03888F43EAD5
:1029E00000400B68C3F888000B6FC86B03EB400313
:1029F0004B670868D0F8A0004FF6FC7398434B6F04
:102A000040EA83000B68C3F8A0000868D0F8A00073
:102A100020F4FE034020405A43EA00400B68C3F80C
:102A2000A000D1E910404B6F04FB00338B670868AE
:102A3000D0F8B00020F0FC03886F43EA80000B68F8
:102A4000C3F8B0000868D0F8B00020F4FE03B1F875
:102A5000480043EA00400B68C3F8B000D1E91240D7
:102A60008B6F04FB0033CB670868D0F8AC0020F014
:102A7000FC03C86F43EA80000B68C3F8AC00D1E9DF
:102A80001440CB6F04FB0033802043500868D0F81B
:102A9000F0004FF6FC73984380235B5840EA8300B4
:102AA0000B68C3F8F0000868D0F8F00020F47C133D
:102AB000B1F8580043EA00400B68C3F8F0008020EA
:102AC0004358886D03EB4003842043500868D0F8D6
:102AD000C00020F0FC038420405843EA80000B68CB
:102AE000C3F8C0000868D0F8C00020F47C13B1F827
:102AF0005C0043EA00400B68C3F8C00084204358E0
:102B0000CC6D886E04FB0033882043500868D0F8F1
:102B1000C00020F07C5391F8600043EA00600B682D
:102B2000C3F8C000294B486B03EB8000C866CB6E2E
:102B3000886B03EB80030B670B6FC86B03EBC00361
:102B40004B67D1E9100358434B6F03EB80038B674E
:102B5000D1E9120358438B6F03EB8003CB67D1E9B4
:102B600014035843CB6F03EB80038020435043583A
:102B7000886D03EBC003842043508B6EC86D5843AF
:102B800084235B5803EB8003882043508B6E086ED0
:102B9000584388235B5803EB8003902043504058F0
:102BA0000B4B984207D9D1F8980040F02000C1F8AB
:102BB0009800012010BDCA6E02E000201060121DB6
:102BC000902040589042F8D80020F3E700AC004035
:102BD000FCB500402DE9F041054614461F46486803
:102BE00048B9D1F80880086940EA0800B1F80080C7
:102BF00040EA88460AE0086940F08040D1F8088041
:102C000040EA0800D1F8008040EA080691F82080E8
:102C1000C86940EA0860D1F8188040EA0800D1F895
:102C2000148040EA0800D1F80C8040EA080CA86E35
:102C30007843D5F8848008EB800340C343F804CB85
:102C4000002211E0D01C205C4FEA0068901C205C40
:102C500048EA0048501C205C48EA002014F8028032
:102C600040EA080001C3121DDFF81480C86808EBB1
:102C7000104000789042E5D80020BDE8F0810000C7
:102C8000C8C7000870B504460D4616460C480460D7
:102C90004FF080400A494860002088600846C660BE
:102CA0000020086148618861C86108622A460548B9
:102CB00000F012FB08B1012070BD0020FCE700000D
:102CC000CCBD012008BD01200FB41CB50E9C002016
:102CD0000090019040F25721049888421BD120783F
:102CE0000A2817D10798B0F5803FFAD119208DF83E
:102CF000000002208DF8010027208DF8020004203A
:102D00008DF803007F48806804226946436840F2DA
:102D100056209847F2E00498B0F5187F17D1207834
:102D20000A28F7D10798B0F5803FF3D1754880683D
:102D300004226946436840F26120984771488068E0
:102D400006226946436840F262209847D6E040F286
:102D50007121049888420FD10798B0F5802FD9D1FE
:102D600001208DF8000067488068012269464368A9
:102D700040F272209847C1E040F2732104988842E3
:102D80000FD10798B0F5C02FC4D101208DF80000F5
:102D90005C4880680122694643684FF41D7098477B
:102DA000ACE040F235510498884234D10798B0F530
:102DB000002FAFD1002054490880488020786178E6
:102DC00000EB012000B250498880A078E17800EB48
:102DD000012000B24D4908802079617900EB012083
:102DE00000B24A494880A079E17900EB012000B2A5
:102DF00046498880464800684649086009F0ECFA70
:102E000043490860084601684248006808F08AF8AB
:102E10004149086072E040F237510498884234D149
:102E20000798B0F5002F69D100203C490880488000
:102E30002078617800EB012000B238498880A078C2
:102E4000E17800EB012000B23549088020796179F2
:102E500000EB012000B232494880A079E17900EB13
:102E6000012000B22E4988802E4800682E49086053
:102E700009F0B2FA2B490860084601682A48006840
:102E800008F050F82949086038E040F232510498BF
:102E9000884233D10798B0F5002F2FD10020244964
:102EA000088048802078617800EB012000B220493A
:102EB0008880A078E17800EB012000B21D490880ED
:102EC0002079617900EB012000B21A494880A0798D
:102ED000E17900EB012000B21649888016480068AD
:102EE0001649086009F078FA134908600846016835
:102EF0001248006808F016F8114908601CBC5DF81B
:102F000014FB000028010020360000203C000020B7
:102F100048000020440000204C0000205000002009
:102F200056000020600000205C00002064000020AB
:102F3000680000206E00002078000020740000204F
:102F40007C00002070B505460E461446092C3ED282
:102F5000DFE804F03D050C131A21282F36004FF44A
:102F6000803231462846FFF78DFE31E04FF40032C3
:102F700031462846FFF786FE2AE04FF440323146BC
:102F80002846FFF77FFE23E04FF480223146284693
:102F9000FFF778FE1CE04FF4A02231462846FFF7E9
:102FA00071FE15E04FF4C02231462846FFF76AFE55
:102FB0000EE04FF4E02231462846FFF763FE07E0BB
:102FC0004FF4002231462846FFF75CFE00E000BFC8
:102FD00000BF70BD08B5FFF71BFC002008231F22AF
:102FE000194600900A20FFF741FC08BD10B50446C1
:102FF0002046FFF78FFC10BD70B505460E461446FF
:10300000092C3ED2DFE804F03D050C131A21282FCD
:1030100036004FF4803231462846FFF78FFC31E00E
:103020004FF4003231462846FFF788FC2AE04FF47F
:10303000403231462846FFF781FC23E04FF48022DE
:1030400031462846FFF77AFC1CE04FF4A0223146B7
:103050002846FFF773FC15E04FF4C022314628469E
:10306000FFF76CFC0EE04FF4E02231462846FFF7F4
:1030700065FC07E04FF4002231462846FFF75EFC6E
:1030800000E000BF00BF70BD10B52DED0A8B0446F7
:10309000B0EE408BB0EE419BB0EE42AB03F0BEFF12
:1030A000B7EEC80BB7EEC00A9FED151B30EE010B53
:1030B000B7EEC00BB0EE40BAB7EEC90BB7EEC00A20
:1030C0009FED111B30EE010BB7EEC00BF0EE40BAD6
:1030D000B7EECA0BB7EEC00A9FED0D1B30EE010B29
:1030E000B7EEC00BB0EE40CAB0EE4C1AF0EE6B0A71
:1030F000B0EE4B0AFEF7CCFFBDEC0A8B10BD000012
:1031000044444434F710D73F4A7EB1E4734F8DBF37
:103110008B25BF58E46089BF10B503F013FE10BDC6
:1031200010B504460CB9012010BD94F835000228F2
:1031300003D0802060650120F6E73449206888428A
:1031400005D333492068884201D8012000E00020DF
:10315000C0B1042084F835002C49206888420AD385
:103160002B492068884206D82068006820F00100BA
:103170002168086048E02068006820F001002168AC
:10318000086041E02068006820F00E0021680860B7
:103190001E49206888420AD31D492068884206D803
:1031A0002068006820F001002168086005E02068C0
:1031B000006820F0010021680860206E006820F49B
:1031C0008070216E086094F85C10012088401149DD
:1031D0000860D4E919104860E06E40B1E06E006804
:1031E00020F48070E16E0860D4E91C10486000BFD4
:1031F000002084F8340000BF012084F83500206DE1
:1032000010B12046216D884700208DE71000024054
:10321000B8040240045402580348006840F001001A
:1032200001490860704700002004005810B50346AB
:1032300093F89400012803D093F8940002283ED11B
:103240001868806D084030B91868C06D40F0010002
:103250001C68E0650EE01868806D0840884206D161
:103260001868C06D40F002001C68E06502E00320B1
:103270001C68E06501F4007030B11868D0F8E00017
:1032800010431C68C4F8E00001F4806030B1186895
:10329000D0F8E40010431C68C4F8E40000BF1868CC
:1032A000406D0B4C0C4020431C6860650948006869
:1032B00040EA9170074C206000BF002010BDD3F899
:1032C000980040F00200C3F898000120F6E70000E3
:1032D000FFFFCF3F14A800402DE9F04104460E4601
:1032E0001746706800B900E000BF94F89400022807
:1032F0002ED12068D0F8C00000F07C5040B9D4F83E
:10330000980040F02000C4F898000120BDE8F0814A
:103310002068D0F8C40000F4001038B1D4F8980048
:1033200040F02000C4F898000120EFE72068D0F8B2
:10333000C400C0F304452B463A4631462046FFF709
:1033400049FC0120A8402168C1F8D0000020DDE739
:10335000D4F8980040F00800C4F898000120D5E7A0
:10336000704770B5024692F89400012803D092F895
:103370009400022842D1C868072800D100BF08681D
:1033800018BBC868072800D000BFC86807280BD141
:10339000088A4FF0605646EA0040CE6940EA0620AF
:1033A0008E6940EA06030AE0087A80070E7B40EA4D
:1033B000C6600E8A40EA06404E6940EA0603D66EB1
:1033C000486806EB8004236016E0C868072800D030
:1033D00000BF0E7B086940EA4673C868072801D120
:1033E0008D6903E00E7A486940EA8675166F486871
:1033F00006EBC00408C42560002070BDD2F8980018
:1034000040F00200C2F898000120F6E710B504462B
:103410000CB9012010BD204600F0BBFD204600F095
:103420001BFD0020C4F8980084F8940000BFF1E769
:10343000704700002DE9F04104460D461F46002666
:1034400094F89400012803D094F89400022870D1D5
:10345000402D28D12068D0F8A00000F4FE0040B92B
:10346000D4F8980040F02000C4F898000120BDE88E
:10347000F0812068D0F8A40000F07F0038B9D4F8BB
:10348000980040F02000C4F898000120EFE7206881
:10349000D0F8A400C0F30526606C7043D4F87480A3
:1034A00008EB80013AE0412D27D12068D0F8B00028
:1034B00000F4FE0038B9D4F8980040F02000C4F8B9
:1034C00098000120D3E72068D0F8B40000F07F0016
:1034D00038B9D4F8980040F02000C4F898000120D2
:1034E000C5E72068D0F8B400C0F30526E06C70434F
:1034F000D4F8788008EB800110E0206DA84207D84E
:10350000D4F8980040F02000C4F898000120AEE7FD
:10351000606D6843D4F87C8008EB8001086800F097
:1035200080405060506828B90868C0F38A40106035
:1035300004E054E0086820F060401060086800F083
:103540000050906051F8048B08F00040106108882A
:1035500080B2D061086800F47020D060086800F480
:1035600080105061086800F4001090610868C0F392
:103570000660106201C9C00F50620B464FF0000C8C
:1035800005E013F8010B07F8010B0CF1010CDFF853
:103590006080D06808EB104000786045F1D8402D7D
:1035A00003D12068C0F8A86017E0412D03D120683E
:1035B000C0F8B86011E0202D06D20120A840D4F850
:1035C0000080C8F8980008E0A5F120004FF001083D
:1035D00008FA00F82068C0F89C80002047E7D4F87B
:1035E000980040F00200C4F8980001203FE7000076
:1035F000C8C70008704700002DE9F04F87B00446A7
:10360000FE4800688507FD48001D006805EA8075D2
:103610002068006D00F470462068406D0640206808
:10362000006D00F00F072068406D07402068006DB6
:1036300000F0F0082068406D00EA08082068006D7E
:1036400000F07F592068406D00EA09092068006D8C
:1036500000F48070E8B12068406D00F48070C0B163
:1036600000BF2068406D20F4807021684865E34801
:10367000001D0068E149091D086000BF00BF8815F2
:10368000216808650020DD49086000BF2046FFF77B
:10369000B1FF2068006D00F4806088B32068406D41
:1036A00000F4806060B300BF2068406D20F480604B
:1036B00021684865D148001D0068D049091D08608F
:1036C00000BF2068D0F8DC0005902068D0F8E40046
:1036D0000599084005902068D0F8E40005998843D2
:1036E0002168C1F8E40000BF4FF4806021680865DC
:1036F0000020C249086000BF2046059900F083FC05
:10370000EDB100BF2068406DBD4929408843216864
:103710004865BA48001D006820EA9570B749091D40
:10372000086000BF00BFB648284021680865A80FA0
:10373000B249086000BF29462046FFF711FEEEB1EE
:1037400000BF2068406DAE4931408843216848651C
:10375000AA48001D006820EA9670A849091D086063
:1037600000BF00BFA648304021680865B00FA349DC
:10377000086000BF3146204600F047FCEFB100BFB3
:103780002068406D9E4939408843216848659B48C0
:10379000001D006820EA97709849091D086000BF65
:1037A00000BF9748384021680865B80F9349086002
:1037B00000BF3946204600F0ABFBB8F1000F20D027
:1037C00000BF2068406D8E4908EA010188432168E6
:1037D00048658A48001D006820EA98708749091DDD
:1037E000086000BF00BF864808EA0000216808653D
:1037F0004FEA98708149086000BF4146204600F0BA
:10380000ADFB2068006D00F40060E8B12068406DF9
:1038100000F40060C0B100BF2068406D20F400607B
:10382000216848657548001D00687449091D0860D5
:1038300000BF00BFC8142168086500206F490860F8
:1038400000BF204600F0E2FB2068006D00F400702D
:1038500088B32068406D00F4007060B300BF20683A
:10386000406D20F40070216848656448001D0068C0
:103870006249091D086000BF2068D0F8D800069092
:103880002068D0F8E0000699084006902068D0F83B
:10389000E000069988432168C1F8E00000BF4FF4BA
:1038A00000702168086500205449086000BF204668
:1038B000069900F0A9FB2068006D00F40020F0B12B
:1038C0002068406D00F40020C8B100BF2068406D42
:1038D00020F40020216848654848001D00684749D9
:1038E000091D086000BF00BF4FF400202168086573
:1038F00000204249086000BF204600F007FB206816
:10390000006D00F48030F0B12068406D00F480302C
:10391000C8B100BF2068406D20F480302168486540
:103920003648001D00683549091D086000BF00BF0A
:103930004FF480302168086500203049086000BFDE
:10394000204600F05FFB2068006D00F48020F0B19D
:103950002068406D00F48020C8B100BF2068406D31
:1039600020F48020216848652448001D0068234910
:10397000091D086000BF00BF4FF480202168086562
:1039800000201E49086000BF204600F03AFB206876
:10399000006D00F4003008B32068406D00F4003082
:1039A000E0B100BF2068406D20F400302168486518
:1039B0001248001D00681149091D086000BF00BFC2
:1039C0004FF400302168086500200C49086000BFF2
:1039D000D4F8980040F08000C4F89800B9F1000FC6
:1039E00027D000BF2068406D054909EA01018843DE
:1039F000216848650148001D006803E010A80040E8
:103A0000FFFFCF3F20EA99706449086000BF00BF04
:103A1000634809EA0000216808654FEA99705F4928
:103A2000091F086000BFD4F8980040EA0900C4F8F4
:103A300098005C49206888427ED16068806800F008
:103A40000300002878D06068006A00F00F0A606800
:103A5000406A00EA0A0A6068006A00F0300B606899
:103A6000406A00EA0B0B6068006A00F4C0700490C2
:103A70006068406A0499084004906068006A00F435
:103A8000FC4003906068406A0399084003906068B6
:103A9000006A00F4F02002906068406A02990840D1
:103AA0000290BAF1000F0CD06068406A20EA0A0068
:103AB000616848626068C0F820A05146204600F066
:103AC0009DFABBF1000F0CD06068406A20EA0B0041
:103AD000616848626068C0F820B05946204600F02E
:103AE0008FFA6068006A00F04000D8B16068406AF0
:103AF00000F04000B0B16068406A20F040006168AA
:103B000048626068C06B000C01906068C06B00F098
:103B10003F0000904020616808622046DDE90021F6
:103B200000F06DFA049870B16068406A04998843A7
:103B300061684862049800E027E0616808622046F6
:103B4000049900F05AFA039870B16068406A0399CA
:103B5000884361684862039861680862D4F89800F5
:103B600003990843C4F89800029870B16068406AED
:103B70000299884361684862029861680862D4F8D3
:103B8000980002990843C4F89800D4F8980010B13E
:103B90002046FFF74DFC07B0BDE8F08F14A80040A9
:103BA000FFFFCF3F00A0004070B5044600250CB9D0
:103BB000012070BDA6492068884203D1206800F525
:103BC00080706060A068B0F5407F00D100BF206CBD
:103BD00000B100BFA06C00B100BF206D00B100BFFC
:103BE000206E00B100BFD4E91710084400B100BF37
:103BF00094F8940028B9002084F89500204600F03D
:103C00003FF92068806920F010002168886100F089
:103C10002BFB05460EE000F027FB401B0A2809D9C4
:103C20009434606840F001006060032004F8940957
:103C30000120BEE72068806900F008000828EAD06B
:103C40002068806940F001002168886100F00CFB69
:103C500005460EE000F008FB401B0A2809D9943401
:103C6000606840F001006060032004F894090120BE
:103C70009FE72068806900F001000028EAD02068F2
:103C8000806940F0020021688861207C012806D10B
:103C90002068806920F040002168886105E0206884
:103CA000806940F0400021688861607C012806D16D
:103CB0002068806940F480402168886105E02068C0
:103CC000806920F4804021688861A07C012806D1A9
:103CD0002068806920F480502168886105E02068B0
:103CE000806940F48050216888612068806920F4F0
:103CF0004070A168084321688861E068012806D106
:103D00002068806940F004002168886120E0E06854
:103D1000F0B1E068022815D02068806940F080008A
:103D2000216888612068006940F0100021680861FE
:103D3000E06803280CD12068806940F020002168E9
:103D4000886105E02068806940F020002168886172
:103D5000207E401E4106E069401E41EA0020216AA3
:103D6000491E0843A18A491E40EA01402168C861F2
:103D7000A068B0F5407F0FD1A06A401EE16A491EDD
:103D800040EA0121206B401E41EA0011A08C401E38
:103D900041EA00402168C860206E38B12068D0F840
:103DA000C000616E08432168C1F8C000D4E9171053
:103DB000084458B12068D0F8C80020F00700254A10
:103DC000A16E515C08432168C1F8C800206C58B14D
:103DD0002068D0F8BC0020F007001E4A616C515CDE
:103DE00008432168C1F8BC00A06C60B12068D0F81D
:103DF000BC0020F07001174AE06C105C41EA001032
:103E00002168C1F8BC00206D60B12068D0F8BC000A
:103E100020F4E0610F4A606D105C41EA00202168E7
:103E2000C1F8BC000A492068884205D160688068F2
:103E300020F00300616888602046FEF79FFD0020A7
:103E4000C4F89800012084F894000020B1E6000036
:103E500000A00040D8C7000810B504460748006815
:103E600040F48070054908600846006820F48070BE
:103E70000860132000F040FA10BD0000944402587E
:103E800010B5B6B0044600BF1E48006840F480700C
:103E90001C4908600846006800F48070019000BF6B
:103EA00000BF00BF17480C38006840F001001549FA
:103EB0000C3908600846006800F00100019000BF5E
:103EC00000BF4FF40040029040031D9002A800F094
:103ED000F5FC4FF4C0503190022032900120339015
:103EE000002034900920359031A9074800F090F85F
:103EF00002220121132000F031FA132000F01EFAF3
:103F000036B010BDEC440258000002587047000063
:103F100030B589B005460C4600200790089004F0A3
:103F20000100B0B107AB0C4A40212846FFF782FAE6
:103F300007A818220849103106906846FCF774FB60
:103F400005480FC8FEF7C0FE002201212846FFF7F2
:103F50006DF909B030BD0000A4BD012070470146D5
:103F600091F8940001280CD1022081F8940008688F
:103F7000806920F001000A6890610020C1F8980073
:103F80007047D1F8980040F00400C1F89800012073
:103F9000F6E70146002291F89400022825D108682E
:103FA000806940F001000B6898610DE01046521CDA
:103FB0000A2809D99431486840F00100486003207C
:103FC00001F89409012070470868806900F0010039
:103FD0000028EBD00868806940F002000B68986107
:103FE000012081F894000020EDE7D1F8980040F01E
:103FF0000800C1F898000120E5E770477047704756
:1040000070477047704770477047704770470000AF
:10401000F8B502460B460021002600240020824D00
:1040200000BFFCE0012707FA01F61F6807EA060453
:10403000B4427CD15F68022F02D05F68122F1AD180
:104040004FEAD10C02F1200757F82C004F074FEA36
:10405000D76C0F2707FA0CF7B8434FEA417C4FEAB9
:10406000DC6C1F6907FA0CF738434FEAD10C02F1F8
:10407000200747F82C0010684FEA410C032707FA85
:104080000CF7B8431F7907F003074FEA410C07FA12
:104090000CF7384310605F68012F08D05F68022F6B
:1040A00005D05F68112F02D05F68122F17D190687A
:1040B0004FEA410C032707FA0CF7B8434FEA410CCB
:1040C000DF6807FA0CF738439060506801278F408B
:1040D000B8431F79C7F300178F4038435060D0684A
:1040E0004FEA410C032707FA0CF7B8434FEA410C9B
:1040F0009F6807FA0CF73843D0605F6807F0805775
:10410000B7F1805F95D100BF484F3F6847F0020785
:10411000DFF818C1CCF8007067463F6807F0020767
:10412000009700BF00BF424F4FEA910C00E075E0DE
:1041300057F82C008F074FEA177C0F2707FA0CF768
:10414000B8433C4FBA4201D100272DE03A4FBA4262
:1041500001D1012728E0394FBA4201D1022723E0DB
:10416000374FBA4201D103271EE0364FBA4201D180
:10417000042719E0344FBA4201D1052714E0334F28
:10418000BA4201D106270FE0314FBA4201D10727C9
:104190000AE0304FBA4201D1082705E02E4FBA425B
:1041A00001D1092700E00A274FEA817C4FEA1C7CF5
:1041B00007FA0CF738431E4F4FEA910C47F82C00D2
:1041C0002868A0435F6807F48037B7F5803F00D1C7
:1041D000204328606868A0435F6807F40037B7F59C
:1041E000003F00D1204368604FF0B0473868A043DB
:1041F0005F6807F48017B7F5801F00D120434FF0A8
:10420000B04738607868A0435F6807F40017B7F5D7
:10421000001F00D120434FF0B0477860491C10299F
:10422000FFF400AFF8BD000080000058F4440258CD
:104230000804005800000258000402580008025800
:10424000000C0258001002580014025800180258BE
:10425000001C025800200258002402580AB10183B1
:1042600000E041837047000001480068704700008B
:104270009401002003480068034909780844014973
:1042800008607047940100209C01002010B50320B5
:1042900000F0A2F80F2000F007F808B1012010BDCF
:1042A00000F028F80020FAE770B504460E480078C0
:1042B0004FF47A71B1FBF0F00C490968B1FBF0F5ED
:1042C000284602F097FA08B1012070BD102C07D2E1
:1042D00000222146501E00F041F80548046001E02C
:1042E0000120F2E70020F0E79C0100209C00002064
:1042F000980100207047000010B5014608460028CC
:1043000017DB00F01F0301229A400B4B440943F8CE
:10431000242000BF00BF00BFBFF34F8F00BF00BF0E
:1043200000BF00BF00BF00BFBFF36F8F00BF00BF63
:1043300000BF00BF10BD000080E100E0014608465C
:10434000002809DB00F01F0301229A4043099B006B
:1043500003F1E023C3F8002100BF70472DE9F05FAF
:1043600080460D46164605F01FFC074639462A468C
:10437000334601F00700C0F1070ABAF1040F02D971
:104380004FF0040A01E0C0F1070AD14600F1040A27
:10439000BAF1070F02D24FF0000A01E0A0F1030AC0
:1043A000D4464FF0010A0AFA09FAAAF1010A0AEA08
:1043B000020A0AFA0CFA4FF0010B0BFA0CFBABF1F4
:1043C000010B0BEA030B4AEA0B042146404605F0B9
:1043D000F3FBBDE8F09F000000BF00F00702064BB2
:1043E00019684FF6FF031940044B0B4343EA0221BF
:1043F000014B196000BF70470CED00E00000FA05AA
:1044000010B501F067F90949096801F470614FF4CA
:10441000807292FAA2F2B2FA82F2D140044A515C5E
:10442000C840044908600846006810BD1844025896
:10443000D4C600089C00002010B501F003F907491C
:10444000096801F07001102292FAA2F2B2FA82F227
:10445000D140034A515CC84010BD000020440258BE
:10446000D4C6000870B501460022012000230024B4
:104470009FED811AB0EE410A9FED7F1AF0EE410ADE
:104480007E4D2D6805F003027C4D2D68C5F3053087
:104490007A4D2D1D2D6805F01003784D14352D68CB
:1044A000C5F3CC0515FB03F501EE105AB8EE411A21
:1044B000B0EE410A22B1012A4DD0022A7DD169E035
:1044C0006E4D283D2D68C5F340152DB36B4D283D2D
:1044D0002D68C5F3C1066A4D25FA06F4B4FBF0F564
:1044E00001EE105AF8EE411A9FED661A80EE012A8D
:1044F000624D10352D68C5F3080501EE105AB8EE6F
:10450000411A32EE011AB7EE002A31EE021A21EEFC
:10451000811AF0EE410A1DE0594DB5FBF0F501EEB0
:10452000105AF8EE411A9FED571A80EE012A534DAA
:1045300010352D68C5F3080501EE105AB8EE411A82
:1045400032EE011AB7EE002A31EE021A21EE811A7C
:10455000F0EE410A5EE04C4DB5FBF0F501EE105A6D
:10456000B8EE412A9FED471AC0EE011A434D1035AF
:104570002D68C5F3080501EE105AB8EE411A31EE68
:10458000811AF7EE001A31EE211A22EE011AF0EE2E
:10459000410A3FE03D4DB5FBF0F501EE105AF8EE53
:1045A000411A9FED381A80EE012A344D10352D68DE
:1045B000C5F3080501EE105A00E00CE0B8EE411A10
:1045C00032EE011AB7EE002A31EE021A21EE811AFC
:1045D000F0EE410A1EE02C4DB5FBF0F501EE105A4D
:1045E000B8EE412A9FED271AC0EE011A234D10356F
:1045F0002D68C5F3080501EE105AB8EE411A31EEE8
:10460000811AF7EE001A31EE211A22EE011AF0EEAD
:10461000410A00BF00BF194D10352D68C5F346256E
:104620006D1C01EE105AB8EE411AC0EE811ABCEEB4
:10463000E11A81ED001A114D10352D68C5F30645BC
:104640006D1C01EE105AB8EE411AC0EE811ABCEE94
:10465000E11A81ED011A094D10352D68C5F3066583
:104660006D1C01EE105AB8EE411AC0EE811ABCEE74
:10467000E11A81ED021A70BD0000000028440258C2
:104680000090D0030000004600093D0040787D0105
:1046900070B5014600220120002300249FED811AFD
:1046A000B0EE410A9FED7F1AF0EE410A7E4D2D6873
:1046B00005F003027C4D2D68C5F305507A4D2D1D84
:1046C0002D6805F48073784D1C352D68C5F3CC0535
:1046D00015FB03F501EE105AB8EE411AB0EE410A8F
:1046E00022B1012A4DD0022A7DD169E06E4D283DCC
:1046F0002D68C5F340152DB36B4D283D2D68C5F3CE
:10470000C1066A4D25FA06F4B4FBF0F501EE105A25
:10471000F8EE411A9FED661A80EE012A624D1835B7
:104720002D68C5F3080501EE105AB8EE411A32EEB5
:10473000011AB7EE002A31EE021A21EE811AF0EECC
:10474000410A1DE0594DB5FBF0F501EE105AF8EEA7
:10475000411A9FED571A80EE012A534D18352D68E6
:10476000C5F3080501EE105AB8EE411A32EE011AEF
:10477000B7EE002A31EE021A21EE811AF0EE410A5C
:104780005EE04C4DB5FBF0F501EE105AB8EE412A53
:104790009FED471AC0EE011A434D18352D68C5F339
:1047A000080501EE105AB8EE411A31EE811AF7EE03
:1047B000001A31EE211A22EE011AF0EE410A3FE012
:1047C0003D4DB5FBF0F501EE105AF8EE411A9FEDA4
:1047D000381A80EE012A344D18352D68C5F30805C6
:1047E00001EE105A00E00CE0B8EE411A32EE011A68
:1047F000B7EE002A31EE021A21EE811AF0EE410ADC
:104800001EE02C4DB5FBF0F501EE105AB8EE412A32
:104810009FED271AC0EE011A234D18352D68C5F3F8
:10482000080501EE105AB8EE411A31EE811AF7EE82
:10483000001A31EE211A22EE011AF0EE410A00BFF1
:1048400000BF194D18352D68C5F346256D1C01EEC6
:10485000105AB8EE411AC0EE811ABCEEE11A81ED91
:10486000001A114D18352D68C5F306456D1C01EE73
:10487000105AB8EE411AC0EE811ABCEEE11A81ED71
:10488000011A094D18352D68C5F306656D1C01EE3A
:10489000105AB8EE411AC0EE811ABCEEE11A81ED51
:1048A000021A70BD00000000284402580090D00396
:1048B0000000004600093D0040787D012DE9F041EF
:1048C000044600250026206800F00060B0F1006F6B
:1048D00030D1606E48B1B0F5801F0DD0B0F5001F2B
:1048E00010D0B0F5401F15D113E0F948006840F42E
:1048F0000030F74908600FE00221201D02F0BEFFE2
:10490000054609E0022104F1240003F04FF80546B2
:1049100002E001E0012500BF00BF55B9EC4824309A
:10492000006820F44010616E0843E94924310860B2
:1049300000E02E43208800F48070B0F5807F2DD1F8
:10494000606D05281AD2DFE800F0030A101718007E
:10495000DF48006840F40030DD49086010E00021C5
:10496000201D02F08BFF05460AE0002104F124001F
:1049700003F01CF8054603E002E001E0012500BF5A
:1049800000BF55B9D2482430006820F00700616D9F
:104990000843CF492431086000E02E43208800F40A
:1049A0000070B0F5007F33D1A06D802817D003DCF4
:1049B00040B140281CD10CE0C02817D0B0F5807F52
:1049C00016D114E0C248006840F40030C0490860C5
:1049D00010E00021201D02F051FF05460AE00021F1
:1049E00004F1240002F0E2FF054603E002E001E0EA
:1049F000012500BF00BF55B9B5482430006820F438
:104A0000E070A16D0843B2492431086000E02E43F4
:104A1000208800F48060B0F5806F38D1D4F8A4000D
:104A2000B0F5800F19D004DC50B1B0F5001F1DD1D6
:104A30000DE0B0F5C00F17D0B0F5000F16D114E09F
:104A4000A348006840F40030A149086010E000214C
:104A5000201D02F013FF05460AE0002104F12400A6
:104A600002F0A4FF054603E002E001E0012500BFDB
:104A700000BF5DB996482C30006820F46000D4F87F
:104A8000A410084392492C31086000E02E4320888E
:104A900000F40060B0F5006F38D1D4F8A800B0F190
:104AA000007F19D004DC50B1B0F1807F1DD10DE042
:104AB000B0F1407F17D0B0F1806F16D114E0844878
:104AC000006840F400308249086010E00021201D99
:104AD00002F0D4FE05460AE0002104F1240002F0B1
:104AE00065FF054603E002E001E0012500BF00BFCD
:104AF0005DB977482C30006820F0E060D4F8A81049
:104B0000084373492C31086000E02E43206800F010
:104B10000070B0F1007F27D1A06CA0B1102804D0A4
:104B2000202809D030280FD10CE06948006840F4F3
:104B300000306749086009E00221201D02F09EFE56
:104B4000054603E002E001E0012500BF00BF55B9C2
:104B50005F482030006820F03000A16C08435C49B9
:104B60002031086000E02E43208800F48050B0F52A
:104B7000805F36D1E06DB0F5005F19D004DC50B134
:104B8000B0F5805F1DD10DE0B0F5405F17D0B0F5F6
:104B9000804F16D114E04E48006840F400304C4974
:104BA000086010E00021201D02F068FE05460AE0C2
:104BB000002104F1240002F0F9FE054603E002E0C2
:104BC00001E0012500BF00BF55B94148243000680D
:104BD00020F4E040E16D08433D492431086000E0E5
:104BE0002E43208800F40050B0F5005F34D1206ED1
:104BF000B0F5403F1DD007DC68B1B0F5803F0BD069
:104C0000B0F5003F18D10DE0B0F5802F12D0B0F50F
:104C1000A02F11D10FE011E00121201D02F02EFE86
:104C200005460BE0012104F1240002F0BFFE054619
:104C300004E003E002E001E0012500BF00BF55B938
:104C400023482430006820F4E020216E08432049E6
:104C50002431086000E02E43208800F48040B0F545
:104C6000804F38D1D4F8AC00B0F1405F1DD007DCE4
:104C700068B1B0F1805F0BD0B0F1005F18D10DE0EA
:104C8000B0F1804F12D0B0F1A04F11D10FE011E080
:104C90000121201D02F0F2FD05460BE0012104F187
:104CA000240002F083FE054604E003E002E001E098
:104CB000012500BF00BF6DB905482C30006820F009
:104CC000E040D4F8AC10084301492C31086002E000
:104CD0002C4402582E43208800F40040B0F5004FC9
:104CE00026D1E06E98B1B0F1805F03D0B0F1005FE3
:104CF0000ED106E0FA48006840F40030F849086038
:104D000008E00121201D02F0B9FD054602E001E0A6
:104D1000012500BF00BF55B9F1482430006820F0DC
:104D20004050E16E0843EE492431086000E02E4314
:104D3000206800F08070B0F1807F27D1606CA0B156
:104D4000012804D0022809D003280FD10CE0E44840
:104D5000006840F40030E249086009E00221201DAB
:104D600002F08CFD054603E002E001E0012500BFF2
:104D700000BF55B9DA482030006820F00300616CAC
:104D80000843D7492031086000E02E43206800F432
:104D90008000B0F5800F7DD1D248006840F480706B
:104DA000D0490860FFF760FA074606E0FFF75CFAB3
:104DB000C01B642801D9032505E0CA48006800F437
:104DC00080700028F2D000BF8DBBC5484430006819
:104DD00000F44070B4F8B01001F44071884214D06F
:104DE000BF484430006820F44078BD484430006833
:104DF00040F48030BA49443108600846006820F425
:104E0000803008600846C0F80080D4F8B000B0F5E3
:104E1000807F15D1FFF728FA074609E0FFF724FA4B
:104E2000C01B41F28831884202D9032507E038E0EF
:104E3000AB4844300068C0F340000028EED000BF0B
:104E40004DBB00BFB4F8B00000F44070B0F5407F37
:104E50000ED1A3481C38006820F47C51A24AD4F833
:104E6000B000104041EA10109D491C39086007E06D
:104E70009B481C38006820F47C5099491C39086014
:104E8000974844300068B4F8B010C1F30B010843F0
:104E9000934901E006E002E04431086002E02E435D
:104EA00000E02E43207800F0010068B3A06F1828BE
:104EB00019D005DC48B1082808D0102816D10BE01D
:104EC000202811D0282811D10FE011E00121201D48
:104ED00002F0D4FC05460BE0012104F1240002F0AD
:104EE00065FD054604E003E002E001E0012500BFA6
:104EF00000BF55B97A482830006820F03800A16F0B
:104F0000084377492831086000E02E43207800F0FC
:104F10000200022828D1606F062815D2DFE800F0D1
:104F200003040A11121311E00121201D02F0A6FC56
:104F300005460BE0012104F1240002F037FD05468F
:104F400004E003E002E001E0012500BF00BF55B925
:104F500063482830006820F00700616F084360490B
:104F60002831086000E02E43207800F00400042877
:104F70002AD1D4F89000062815D2DFE800F0030407
:104F80000A11121311E00121201D02F077FC0546E1
:104F90000BE0012104F1240002F008FD054604E0C5
:104FA00003E002E001E0012500BF00BF5DB94C480D
:104FB0002C30006820F00700D4F8901008434849CE
:104FC0002C31086000E02E43207800F020002028DB
:104FD00036D1D4F88C00B0F1405F1DD007DC68B149
:104FE000B0F1805F0BD0B0F1005F18D10DE0B0F1EF
:104FF000804F12D0B0F1A04F11D10FE011E000218D
:10500000201D02F03BFC05460BE0022104F12400C8
:1050100002F0CCFC054604E003E002E001E00125DB
:1050200000BF00BF5DB92E482830006820F0E04086
:10503000D4F88C1008432A492831086000E02E4338
:10504000207800F04000402836D1D4F89800B0F520
:10505000406F1DD007DC68B1B0F5806F0BD0B0F5A4
:10506000006F18D10DE0B0F5805F12D0B0F5A05FF1
:1050700011D10FE011E00021201D02F0FFFB0546D9
:105080000BE0022104F1240002F090FC054604E04C
:1050900003E002E001E0012500BF00BF5DB9104858
:1050A0002C30006820F4E050D4F8981008430C49E4
:1050B0002C31086000E02E43207800F0800080282A
:1050C0003BD1D4F89C00B0F5C04F24D00EDCA0B189
:1050D000B0F5005F12D0B0F5804F1FD114E0000092
:1050E0002C44025800480258FFFCFF0FB0F5004F57
:1050F00012D0B0F5204F11D10FE011E00021201D9A
:1051000002F0BCFB05460BE0022104F1240002F092
:105110004DFC054604E003E002E001E0012500BF8C
:1051200000BF4DB9B248006820F46040D4F89C102C
:105130000843AF49086000E02E43207800F00800E3
:10514000082816D1D4F88000B0F5805F06D102217E
:1051500004F1240002F02AFC06430AE0A448001FE0
:10516000006820F44050D4F880100843A049091F7B
:105170000860207800F01000102814D1D4F89400B2
:10518000B0F5807F06D1022104F1240002F00EFC6C
:10519000064308E09648006820F44070D4F8941064
:1051A000084393490860206800F40020B0F5002F00
:1051B00026D1D4F8A00030B1B0F5803F09D0B0F5C9
:1051C000003F0ED10CE00021201D02F057FB0546E8
:1051D00009E0022104F1240002F0E8FB054602E0A8
:1051E00001E0012500BF00BF4DB98148006820F4EF
:1051F0004030D4F8A01008437D49086000E02E43F9
:10520000206800F48020B0F5802F2DD1D4F88400E0
:10521000B0F5801F06D0B0F5001F0CD0B0F5401FD0
:1052200011D10FE072482C38006840F4003070490A
:105230002C39086009E0012104F1240002F0B6FBDA
:10524000054602E001E0012500BF00BF5DB96848E6
:10525000001F006820F44010D4F88410084364490B
:10526000091F086000E02E43206800F48030B0F58C
:10527000803F24D1E06C18B1B0F5803F0FD108E039
:105280005B482C38006840F4003059492C390860DC
:1052900007E00221201D02F0F1FA054601E0012598
:1052A00000BF00BF55B952480C38006820F4803068
:1052B000E16C08434E490C39086000E02E43206839
:1052C00000F00050B0F1005F05D1022104F124008C
:1052D00002F06CFB0643206800F40030B0F5003F9C
:1052E00027D1E06FA0B1B0F5807F06D0B0F5007F88
:1052F0000CD0B0F5407F0CD109E03D482C38006857
:1053000040F400303A492C39086004E003E002E040
:1053100001E0012500BF00BF55B93548001F0068F6
:1053200020F44070E16F08433149091F086000E034
:105330002E43206800F48010B0F5801F09D12C485E
:105340000838006820F00040216F084328490839D8
:105350000860206800F08050B0F1805F0AD12448D6
:105360004838006820F48040D4F8B410084320493D
:1053700048390860206800F40010B0F5001F09D11A
:105380001B480838006820F08070A16E0843184957
:1053900008390860206800F08040B0F1804F11D1DA
:1053A00000BF13484838006820F4004010494839CD
:1053B000086008460068D4F8B81008430C4948391A
:1053C000086000BF206800F00040B0F1004F09D134
:1053D00007480C38006820F04050216D084304490C
:1053E0000C39086016B90020BDE8F0810120FBE708
:1053F0005844025870B504460D4600268D48006892
:1054000000F00700A8420ED28A48006820F007008A
:105410002843884908600846006800F00700A84251
:1054200001D0012070BD207800F00200022807D1D1
:105430008148006820F00F00E16808437E49086059
:10544000207800F00100002851D07B48006820F44B
:105450007060A1680843784908606068022807D135
:10546000754818380068C0F34040F8B90120D9E702
:105470006068032807D1704818380068C0F340609E
:10548000A0B90120CEE76068012807D16A48183822
:105490000068C0F3002048B90120C3E76648183807
:1054A0000068C0F3800008B90120BBE762480838F3
:1054B000006820F00700616808435F490839086008
:1054C000FEF7D2FE06466068022811D108E0FEF71A
:1054D000CBFE801B41F28831884201D90320A1E72D
:1054E00055480838006800F038001028EFD13AE03D
:1054F0006068032811D108E0FEF7B6FE801B41F278
:105500008831884201D903208CE74B48083800686D
:1055100000F038001828EFD125E06068012811D18B
:1055200008E0FEF7A1FE801B41F28831884201D9D4
:10553000032077E740480838006800F03800082862
:10554000EFD110E008E0FEF78FFE801B41F28831BA
:10555000884201D9032065E737480838006800F021
:1055600038000028EFD13348006800F00700A84257
:105570000ED93048006820F0070028432D49086004
:105580000846006800F00700A84201D0012049E762
:10559000207800F00400042807D12748006820F094
:1055A00070002169084324490860207800F0080051
:1055B000082809D12048001D006820F070006169AA
:1055C00008431D49091D0860207800F010001028CC
:1055D00009D11948001D006820F4E060A169084362
:1055E0001549091D0860207800F02000202809D105
:1055F00011480830006820F07000E16908430E4946
:105600000831086000F066F80B49096801F4706120
:105610004FF4807292FAA2F2B2FA82F2D140074AB3
:10562000515CC840064908600F20FEF73DFE00208F
:10563000F8E600000020005218440258D4C60008C2
:105640009C00002010B5FEF7DBFE0949096801F057
:105650000F01012292FAA2F2B2FA82F2D140054A77
:10566000515CC840044908600846006810BD00004D
:1056700018440258D4C60008A000002010B5FFF757
:10568000E1FF0749096801F07001102292FAA2F2C5
:10569000B2FA82F2D140034A515CC84010BD00000A
:1056A0001C440258D4C6000810B5FFF7CBFF0749C9
:1056B000096801F4E0614FF4807292FAA2F2B2FA42
:1056C00082F2D140024A515CC84010BD1C440258CD
:1056D000D4C6000870B5012500EE905A00220121C1
:1056E00000230024DFED861AB0EE610ADFED841A94
:1056F000B0EE611A0020834D2D6805F0380535B1F4
:10570000082D15D0102D15D0182D7CD114E07D4D0D
:10571000103D2D68C5F3401545B17A4D103D2D68FB
:10572000C5F3C106784D25FA06F000E07648E5E0BD
:105730007648E3E07648E1E0724D18352D6805F0D3
:105740000302704D18352D68C5F305116D4D1C35DC
:105750002D6805F001036B4D24352D68C5F3CC058C
:1057600015FB03F501EE905AF8EE611AB0EE610AEE
:1057700022B1012A4FD0022A7DD16BE0614D103D4C
:105780002D68C5F340152DB35E4D103D2D68C5F352
:10579000C1065D4D25FA06F4B4FBF1F501EE905A11
:1057A000B8EE612ADFED5B1AC0EE212A554D203597
:1057B0002D68C5F3080501EE905AF8EE611A72EEF5
:1057C000A11AF7EE002A71EEA21A62EE211AB0EECB
:1057D000611A1FE04C4DB5FBF1F501EE905AB8EEA1
:1057E000612ADFED4C1AC0EE212A464D20352D6886
:1057F000C5F3080501EE905AF8EE611A72EEA11A8F
:10580000F7EE002A00E077E071EEA21A62EE211AAC
:10581000B0EE611A5EE03D4DB5FBF1F501EE905A38
:10582000B8EE612ADFED3B1AC0EE212A354D203556
:105830002D68C5F3080501EE905AF8EE611A72EE74
:10584000A11AF7EE002A71EEA21A62EE211AB0EE4A
:10585000611A3FE02E4DB5FBF1F501EE905AB8EE1E
:10586000612ADFED2C1AC0EE212A264D20352D6845
:10587000C5F3080500E00EE001EE905AF8EE611A5B
:1058800072EEA11AF7EE002A71EEA21A62EE211A48
:10589000B0EE611A1EE01D4DB5FBF1F501EE905A18
:1058A000F8EE612ADFED1B1A80EE212A154D203516
:1058B0002D68C5F3080501EE905AF8EE611A72EEF4
:1058C000211AB7EE002A71EE821A62EEA11AB0EE2A
:1058D000611A00BF00BF0B4D20352D68C5F346256A
:1058E0006D1C00EE905AF8EE601A81EE212AFCEE53
:1058F000C21A11EE900A01E0044800BF00BF70BD5B
:1059000000000000104402580090D00300093D0040
:1059100040787D010000004670B5044600252078DF
:1059200000F00100002872D0F948006800F038004B
:1059300010280CD0F648006800F03800182812D162
:10594000F3481830006800F0030002280BD1F0483B
:1059500010380068C0F3404000286DD0606800280F
:105960006AD1012070BD00BF6068B0F5803F08D1EA
:10597000E7481038006840F48030E5491039086085
:105980002EE0606868B9E2481038006820F4803082
:10599000DF49103908600846006820F4802008605C
:1059A0001EE06068B0F5A02F0DD1D948103800680E
:1059B00040F48020D649103908600846006840F459
:1059C000803008600CE0D2481038006820F4803045
:1059D000CF49103908600846006820F4802008602C
:1059E00000BF6068A0B1FEF73FFC054608E0FEF787
:1059F0003BFC401B41F28831884201D90320B1E7CA
:105A0000C34810380068C0F340400028EFD013E0CE
:105A1000FEF72AFC054608E0FEF726FC401B41F293
:105A20008831884201D903209CE7B94810380068C2
:105A3000C0F340400028EFD1207800F00200022897
:105A400047D1B348006800F0380058B1B04800684A
:105A500000F0380018283ED1AD481830006800F03A
:105A60000300B8BBAA4810380068C0F3800018B122
:105A7000E06808B9012075E7A5481038006820F0F3
:105A80001900E1680843A24910390860FEF7ECFBF1
:105A9000054606E0FEF7E8FB401B022801D903207B
:105AA00060E79B4810380068C0F380000028F1D000
:105AB00097480C38006820F47C304FF47C3292FA1E
:105AC000A2F2B2FA82F221699140084390490C395E
:105AD00008604AE0FFE7E06868B38D481038006866
